{
  "contractName": "token",
  "abi": [
    {
      "constant": false,
      "inputs": [
        {
          "name": "sender",
          "type": "address"
        },
        {
          "name": "receiver",
          "type": "address"
        },
        {
          "name": "amount",
          "type": "uint256"
        }
      ],
      "name": "transferFrom",
      "outputs": [
        {
          "name": "success",
          "type": "bool"
        }
      ],
      "payable": false,
      "stateMutability": "nonpayable",
      "type": "function"
    },
    {
      "constant": false,
      "inputs": [],
      "name": "burn",
      "outputs": [],
      "payable": false,
      "stateMutability": "nonpayable",
      "type": "function"
    }
  ],
  "bytecode": "0x608060405234801561001057600080fd5b5061011b806100206000396000f3006080604052600436106049576000357c0100000000000000000000000000000000000000000000000000000000900463ffffffff16806323b872dd14604e57806344df8e701460d0575b600080fd5b348015605957600080fd5b5060b6600480360381019080803573ffffffffffffffffffffffffffffffffffffffff169060200190929190803573ffffffffffffffffffffffffffffffffffffffff1690602001909291908035906020019092919050505060e4565b604051808215151515815260200191505060405180910390f35b34801560db57600080fd5b5060e260ed565b005b60009392505050565b5600a165627a7a723058201c76dfca4f02c9df43c91a1994b4f7c7aac0cecc9dae541f747c63bb6c4ff2b70029",
  "source": "/**\r\n *  Donate contract.\r\n *  Donated Ether will be stored safely at the wallet and returned to the Donate contract if goal is not reached, participans can withdraw their funds.\r\n *  Internal audit:\r\n *  Audit:\r\n **/\r\n\r\npragma solidity ^0.4.21;\r\n\r\n/**\r\n * @title Ownable\r\n * @dev The Ownable contract has an owner address, and provides basic authorization control\r\n * functions, this simplifies the implementation of \"user permissions\".\r\n */\r\ncontract Ownable {\r\n  address public owner;\r\n\r\n\r\n  event OwnershipRenounced(address indexed previousOwner);\r\n  event OwnershipTransferred(\r\n    address indexed previousOwner,\r\n    address indexed newOwner\r\n  );\r\n\r\n\r\n  /**\r\n   * @dev The Ownable constructor sets the original `owner` of the contract to the sender\r\n   * account.\r\n   */\r\n  constructor() public {\r\n    owner = msg.sender;\r\n  }\r\n\r\n  /**\r\n   * @dev Throws if called by any account other than the owner.\r\n   */\r\n  modifier onlyOwner() {\r\n    require(msg.sender == owner);\r\n    _;\r\n  }\r\n\r\n  /**\r\n   * @dev Allows the current owner to relinquish control of the contract.\r\n   * @notice Renouncing to ownership will leave the contract without an owner.\r\n   * It will not be possible to call the functions with the `onlyOwner`\r\n   * modifier anymore.\r\n   */\r\n  function renounceOwnership() public onlyOwner {\r\n    emit OwnershipRenounced(owner);\r\n    owner = address(0);\r\n  }\r\n\r\n  /**\r\n   * @dev Allows the current owner to transfer control of the contract to a newOwner.\r\n   * @param _newOwner The address to transfer ownership to.\r\n   */\r\n  function transferOwnership(address _newOwner) public onlyOwner {\r\n    _transferOwnership(_newOwner);\r\n  }\r\n\r\n  /**\r\n   * @dev Transfers control of the contract to a newOwner.\r\n   * @param _newOwner The address to transfer ownership to.\r\n   */\r\n  function _transferOwnership(address _newOwner) internal {\r\n    require(_newOwner != address(0));\r\n    emit OwnershipTransferred(owner, _newOwner);\r\n    owner = _newOwner;\r\n  }\r\n}\r\n\r\n\r\ncontract token {\r\n\tfunction transferFrom(address sender, address receiver, uint amount) returns(bool success) {}\r\n\tfunction burn() {}\r\n}\r\n\r\nlibrary SafeMath {\r\n    function mul(uint a, uint b) internal returns (uint) {\r\n        uint c = a * b;\r\n        assert(a == 0 || c / a == b);\r\n        return c;\r\n    }\r\n\r\n    function sub(uint a, uint b) internal returns (uint) {\r\n        assert(b <= a);\r\n        return a - b;\r\n    }\r\n\r\n    function add(uint a, uint b) internal returns (uint) {\r\n        uint c = a + b;\r\n        assert(c >= a && c >= b);\r\n        return c;\r\n    }\r\n    function div(uint a, uint b) internal pure returns (uint) {\r\n      return a / b;\r\n    }\r\n}\r\n\r\ncontract shortICO is Ownable {\r\n     using SafeMath for uint;\r\n     /* Token owner address */\r\n\taddress public tokenOwner;\r\n\t/* If the funding goal is not reached, donors may withdraw their funds */\r\n\tuint constant public donateGoal = 100000000000000000000;\r\n\t/* Token price  */\r\n\tuint public price = 1000000000000000;\r\n\t/* Checks how much already raised (in ETH) */\r\n\tuint public amountRaised;\r\n\t/* The start date is 2018-05-02, 7 am. */\r\n\tuint public start = 1525244400;\r\n\t/* The end date of the donate is 2018-10-15, 12 am. */\r\n\tuint public end = 1539561600;\r\n\t/* Checks how much already raised in Tokens */\r\n\tuint public tokensSold = 0;\r\n\t/* Checks how much already raised in Tokens */\r\n\tuint public donorsCount = 0;\r\n\t/* The address of the token contract */\r\n\ttoken public tokenReward;\r\n\t/* Balances (in ETH) of all donors */\r\n\tmapping(address => uint) public balanceOf;\r\n\t/* Indicates if the crowdsale has been closed already */\r\n\tbool public donateClosed = false;\r\n\t/* The wallet on which the funds will be stored */\r\n\taddress dnWallet;\r\n\t/* notifying transfers and the success of the crowdsale*/\r\n\tevent GoalReached(address _tokenOwner, uint _amountRaised);\r\n\tevent FundTransfer(address backer, uint amount, bool isContribution, uint _amountRaised);\r\n\r\n\r\n    /* Initialization */\r\n\r\n\tfunction shortICO () public {\r\n\r\n    }\r\n\r\n    /* Set tokenAddr */\r\n    function setTokenAddr (address tokenAddr, address walletAddr, address tokenOwnerAddr) onlyOwner public {\r\n        tokenReward = token(tokenAddr);\r\n        dnWallet = walletAddr;\r\n        tokenOwner = tokenOwnerAddr;\r\n    }\r\n\r\n\t/* Donate by sending ether to the contract. */\r\n\tfunction() payable {\r\n\t\tif (msg.sender != dnWallet) //do not trigger donate if the wallet is returning the funds\r\n\t\t\tdonate(msg.sender);\r\n\t}\r\n\r\n\r\n\t/* make an donate\r\n\t *  only callable if the donate started and hasn't been closed already and the maxGoal wasn't reached yet.\r\n\t *  the current token price is looked up and the corresponding number of tokens is transfered to the receiver.\r\n\t *  the sent value is directly forwarded to a safe wallet.\r\n\t *  this method allows to donate in behalf of another address.*/\r\n\tfunction donate(address _receiver) payable {\r\n\t\tuint amount = msg.value;\r\n\t\tuint numTokens = amount.div(price);\r\n\r\n        require(numTokens>0);\r\n        require(!donateClosed && now >= start && now <= end && tokensSold.add(numTokens) <= donateGoal);\r\n        dnWallet.transfer(amount);\r\n        balanceOf[_receiver] = balanceOf[_receiver].add(amount);\r\n        amountRaised = amountRaised.add(amount);\r\n        tokensSold += numTokens;\r\n        donorsCount += 1;\r\n        assert(tokenReward.transferFrom(tokenOwner, _receiver, numTokens));\r\n        FundTransfer(_receiver, amount, true, amountRaised);\r\n\r\n\t}\r\n\r\n\r\n\tmodifier afterDeadline() {\r\n\t\tif (now > end)\r\n\t\t\t_;\r\n\t}\r\n\r\n\t/* checks if the goal or time limit has been reached and ends the donate campaign */\r\n\tfunction checkGoalReached() afterDeadline {\r\n\t\trequire(msg.sender == tokenOwner);\r\n\r\n\t\tif (tokensSold >= donateGoal) {\r\n\t\t\ttokenReward.burn(); //burn remaining tokens but the reserved ones\r\n\t\t\tGoalReached(tokenOwner, amountRaised);\r\n\t\t}\r\n\t\tdonateClosed = true;\r\n\t}\r\n\r\n\t/* allows the funders to withdraw their funds if the goal has not been reached.\r\n\t *  only works after funds have been returned from the wallet. */\r\n\tfunction safeWithdrawal() afterDeadline {\r\n\t\tuint amount = balanceOf[msg.sender];\r\n\t\tif (address(this).balance >= amount) {\r\n\t\t\tbalanceOf[msg.sender] = 0;\r\n\t\t\tif (amount > 0) {\r\n\t\t\t\tmsg.sender.transfer(amount);\r\n\t\t\t\tFundTransfer(msg.sender, amount, false, amountRaised);\r\n\t\t\t}\r\n\t\t}\r\n\t}\r\n\r\n}\r\n",
  "sourcePath": "C:\\Users\\Auris\\projektai\\betterworld\\contracts\\shortICO.sol",
  "compiler": {
    "name": "solc",
    "version": "0.4.24+commit.e67f0147.Emscripten.clang"
  },
  "schemaVersion": "2.0.1",
  "updatedAt": "2018-07-03T10:04:45.798Z"
}